:020000040800F2
:100000005809002015030008EF1C0008E71C000831
:10001000EB1C0008AD0D00081325000800000000CF
:100020000000000000000000000000003D02000889
:10003000B10D00080000000091020008C51D000875
:100040002F0300082F0300082F0300082F030008C8
:100050002F0300082F0300082F0300082F030008B8
:100060002F0300082F0300082F0300082F030008A8
:100070002F0300082F0300082F0300082F03000898
:100080002F0300082F0300082F0300082F03000888
:100090002F0300082F0300082F0300082F03000878
:1000A0002F0300082F0300082F0300082F03000868
:1000B0002F03000800000000000000002F030008CC
:1000C0002F0300082F0300082F0300082F03000848
:1000D0002F0300082F0300082F0300082F03000838
:1000E0002F0300082F03000800000000000000009C
:1000F0000000000000000000000000000000000000
:10010000000000002F030008000000002F0300087B
:100110000000000000000000A51E00082F030008DA
:100120002F0300082F0300082F0300082F030008E7
:100130002F03000800000000000000000000000085
:100140002F0300082F0300082F0300080000000001
:100150002F0300082F0300082F0300082F030008B7
:100160002F0300082F0300082F03000800000000E1
:100170002F0300082F03000800000000000000000B
:100180002F0300082F0300082F03000800F002F8D7
:1001900000F044F80AA090E8000C82448344AAF1DD
:1001A0000107DA4501D100F039F8AFF2090EBAE8DB
:1001B0000F0013F0010F18BFFB1A43F0010318479B
:1001C00090260000B0260000103A24BF78C878C1FD
:1001D000FAD8520724BF30C830C144BF04680C604D
:1001E000704700000023002400250026103A28BF95
:1001F00078C1FBD8520728BF30C148BF0B60704799
:100200001FB502F0F5FA9DE8030000F0A1FB00F035
:1002100057F91FBD10B500F0BCF910BD00F046FA4B
:100220001146FFF7EDFF02F085F900F05FFB03B424
:10023000FFF7F0FF03BC00F01DFD00002A4B19681A
:10024000086800F056B880F30988BFF36F8F4FF04D
:10025000000080F311887047000000000648006825
:10026000006880F3088862B661B6BFF34F8FBFF3B2
:100270006F8F00DF00BF00BF08ED00E0DFF80C006B
:10028000016841F470010160704700BF88ED00E033
:10029000EFF30980BFF36F8F134B1A681EF0100F36
:1002A00008BF20ED108A20E9F04F106008B44FF02D
:1002B000500080F31188BFF34F8FBFF36F8F02F0B0
:1002C000ADF94FF0000080F3118808BC1968086888
:1002D00000F014B81EF0100F08BF00F014B880F33F
:1002E0000988BFF36F8F704708000020EFF3058087
:1002F000704730C8B0E8C04FFFF7A5BF30C8B0E8BE
:10030000C04FFFF7E7BFB0EC088AB0EC08CAFFF7B0
:10031000E6BF00000948804709480047FEE7FEE7BE
:10032000FEE7FEE7FEE7FEE7FEE7FEE7FEE7FEE7A5
:1003300004480549054A064B70470000551E000851
:100340008D0100085803002058090020580500209E
:100350005805002053EA020C00F069802DE9F04BAB
:100360004FF00006002B1FBFB3FA83F503FA05F424
:1003700024FA05F65E4012BF1643B2FA82F502FA7D
:1003800005F4C5F120051EBF22FA05FC44EA0C0461
:10039000203556EA044C4FEA144418BF641C4FF051
:1003A00000084FF00009904271EB030C39D300298B
:1003B00019BFB1FA81F701FA07F6B0FA80F700FA2F
:1003C00007F6C7F120071EBF20FA07FC46EA0C0615
:1003D0002037B6FBF4FCA7EB0507103F07F01F0B17
:1003E000CBF120060CFA0BFB2CFA06F644BFB34601
:1003F0000026202FA4BF5E464FF0000B5BEA060CE0
:1004000008BF4FF0010B19EB0B09ABFB027C48EB6B
:100410000608C01B06FB02CC0BFB03CC71EB0C01E6
:10042000C1E70B46024641464846BDE8F08B13B58E
:100430004FF000004FF00001AFF30080BDE81C401A
:10044000704700000FB4044910B503AA029800F0E9
:1004500009F810BC5DF814FB4C020020704770478F
:1004600070470000074B70B50D467B4400F011F853
:100470000446284600F020F810B14FF0FF3070BD60
:10048000204670BDAB20000001694A1C026108785B
:10049000704700B58FB0CDE90131002105910549C4
:1004A0007944CDE903101146684600F04BF90FB0CE
:1004B00000BD0000E5FFFFFF007B00F080007047FB
:1004C00010B54248542100F097F84148542100F0FB
:1004D00093F84048542100F08FF83F493B483C4A8C
:1004E0003F4B08603D490A603A491960531C036557
:1004F000481C1065012008653B48344A39A17844FE
:1005000000F058F920B9384878440A3800F0F7F973
:1005100037482F4A35A1784400F04CF920B93448C7
:1005200078440A3800F0EBF932482A4A2FA178447F
:1005300000F040F920B92F4878440A3800F0DFF97C
:1005400040232248DC000021224600F00FF920B1B0
:1005500025487844543800F0D2F91D4822464023FB
:10056000002100F003F920B121487844543800F00C
:10057000C6F9184822461023002100F0F7F8002899
:1005800006D01C487844BDE81040563800F0B7B992
:1005900010BD104870B5006D20F001040B4800F04C
:1005A0007FF90B4800F07CF90A4800F079F909E07E
:1005B000206D20F00105204600F072F9204600F081
:1005C0009AF82C46002CF3D170BD0000F8010020F1
:1005D0004C020020A002002044000020480000201F
:1005E0004C00002072000000422300007700000051
:1005F0002E2300001A2300004FF0000200B513461E
:1006000094469646203922BFA0E80C50A0E80C5032
:10061000B1F12001BFF4F7AF090728BFA0E80C50E3
:1006200048BF0CC05DF804EB890028BF40F8042BDC
:1006300008BF704748BF20F8022B11F0804F18BF49
:1006400000F8012B70470EB5CDE9000100F0F2FA79
:10065000029069460120ABBE0EBD08B56946009008
:100660000220ABBE08BD1FB58DE807006946052016
:10067000ABBE04B010BD1FB58DE80F006946062063
:10068000ABBEF6E708B5694600900920ABBE08BDD1
:100690001CB5CDE9000169460A20ABBE1CBD704700
:1006A00008B5694600900C20ABBE08BD754600F049
:1006B0002DF9AE4605006946534620F007008546F1
:1006C00018B020B5FFF734FEBDE820404FF000061B
:1006D0004FF000074FF000084FF0000B21F007012A
:1006E000AC46ACE8C009ACE8C009ACE8C009ACE86D
:1006F000C0098D46704770B50446051F00F00CF91F
:100700000068002C14BF446870BD002C18BFAC42B8
:100710003CBF20466468F8D301680A18AA4218BF93
:10072000456003D12A6805461144016028684119D3
:10073000A1421CBF6C6070BD61686960216808449B
:10074000286070BD2DE9F04106460024D6E901700D
:10075000F5688046304603E04146B847641C3046A1
:10076000A8470028F8D12046BDE8F08170B5C468DC
:10077000A50713D0650211D4B2F5807F09D0B2F578
:10078000007F06D0B2F5806F08D1012300F124016B
:1007900006E05D1E6FF07F46B54201D3012070BDBB
:1007A0000161C361416024F470611143C1600020A4
:1007B00070BD00002DE9F0410C4607461646104674
:1007C00000F06EF82078611C61280AD0722802D0EF
:1007D00077283CD102E00125002405E0022504240D
:1007E00002E0082448F2020511F8010B2B2806D07C
:1007F000622809D011F8010C74280AD00BE045F0EA
:10080000030544F00204EFE745F0040544F0010459
:10081000EAE744F0100438462146FFF714FF411C74
:1008200015D00021316171604FF40071F560F16104
:100830007061200704D530460222002100F0E6F85E
:10084000306D40F0010030653046BDE8F081002099
:10085000FBE72DE9F0410D460646104C206DC1071F
:1008600004D0410804D020F00104F7E722460EE04E
:10087000542000F09CF807000ED0206D47F00101D5
:100880000843542120653846FFF7B6FE3A4629460C
:100890003046BDE8F0418DE70020D6E7F8010020A2
:1008A0002DE9F04704464FF000094FF0FF37C568C7
:1008B000D4E90486A80707D0204600F057F930464F
:1008C000FFF7CBFE002802DA3846BDE8F08728059E
:1008D00002D54046FFF70FFF4C212046FFF78CFE64
:1008E000206D20F0010020654846EEE710B5044673
:1008F000AFF300802046BDE81040FFF798BC10B56C
:1009000000F07EF9BDE8104000F074B9004870476F
:10091000F40200207047000000487047FC020020ED
:10092000704770477047704738B504460A46002044
:100930006946AFF30080002808BF38BD0246009921
:10094000204600F0A4F9012038BD012000F0F3B9E1
:10095000F8B5AFF30080054600200C46102000BF1C
:100960000646A819A0420DD9324669460020AFF3C9
:100970000080070008BF00F0DEF90098A04218BF11
:100980000546C419FFF7C8FF05600746F01D20F0B3
:1009900007004619284600F073F9B44208BFF8BDB5
:1009A000A21B31463868BDE8F84000F070B970B558
:1009B0000646FFF7B1FF056806F10B0020F00704BB
:1009C000B4429CBF002070BD2B466A68BAB1106863
:1009D000A04210D304F1080188423CBF506858601F
:1009E00007D35168101941601168091B01605860F4
:1009F0001460101D70BD13465268002AE7D12146CD
:100A00002846FFF791FF0028DED170BD2DE9F041A7
:100A1000044616460D464769007B80072ED03846AF
:100A2000FFF730FE50BB3EB3012E02D0022E25D17F
:100A300004E0204600F045F905441DE03846FFF784
:100A40002FFEE168002841F01001E16005DA204640
:100A500000F058F80120BDE8F081C9030BD56268A9
:100A6000E16A914200D81146A26911442269891AAB
:100A7000814200DD08460544002D01DA0220EAE744
:100A8000E16A6068E268814206D29103E06203D5C0
:100A900022F4003141F01002A6690027AE4213DCB7
:100AA000E16A814201D90B4600E0034603EB060CE4
:100AB0002369ACEB030CAC4506DD814201D98C46C1
:100AC00000E084469C4505D1A760276042F02000E5
:100AD000A5620DE0AD1BE669AE1B8142A66000D9A0
:100AE0000846C01A281A20605819606022F02000B9
:100AF00003490840E060002084F84870ABE700003C
:100B0000BFCFD7FFC16821F4001141F08001C1605F
:100B100000218160016070472DE9F047814614464D
:100B20000E464FF0FF383248D5685769054209D064
:100B30003846A169FFF7ACFD002811DB2C48C04303
:100B40000540E5602B46324649463846FFF78BFDA7
:100B5000A16920F00042B21A11440028A16103D01B
:100B60002046FFF7CFFF4046BDE8F08770B504464A
:100B70000569C06A6168884200D80846E16821F4C6
:100B80002011E160C90312D5A84208D02246411BBA
:100B90002846FFF7C1FF10B14FF0FF3070BD0020B5
:100BA000E562C4E90150E06820F48030E060002094
:100BB00070BD10B50446C06820F02000E060A16A56
:100BC000A06988420DD02046FFF7D0FFE06820F4EE
:100BD000405040F01000E060A06AA0612069E0622F
:100BE000606044F24001E0688843E06010BD0000AE
:100BF00010000200002801D000F03CB8704700004F
:100C000010B5014602A000F07DF8012010BD0000E3
:100C100053494752545245443A20526564697265BB
:100C200063743A2063616E2774206F70656E3A209A
:100C30000000000010B5431C02E010F8011B71B168
:100C40008107FAD14FF0013202C88C1A8C4314EAA2
:100C5000C211F9D0C01A0A0603D0C01E10BDC01AB6
:100C600010BD0A0401D0801E10BD0902FCD0401E38
:100C700010BD000001491820ABBEFEE726000200AF
:100C800000210160C0E90110704710207047034641
:100C900040688C46002818BF88423CBF0346406825
:100CA000F8D318681844884207D00CF1030020F0EC
:100CB0000700001D411A521A0146081D0A60FFF77D
:100CC0001ABD10B50146C268900703D0900607D53B
:100CD000886A0AE000F03EF801210160881E10BD1C
:100CE0008B69486818440B69C01A91F848301BB1E9
:100CF00091F84910401A10BD1103FCD50028FADD07
:100D0000401E10BD70B505460C460A2000E06D1C63
:100D100000F018F835B128780028F8D102E0641CFA
:100D200000F010F814B120780028F8D1BDE8704028
:100D30000A2000F007B810B500F010F8BDE8104028
:100D4000FFF758BF08B569468DF800000320ABBE19
:100D500008BD000000487047F402002010B50128CB
:100D600005D0002103A0FFF7CDFF012010BD09A190
:100D7000F8E7000053494752544D454D3A204F750E
:100D800074206F662068656170206D656D6F727983
:100D9000000000003A2048656170206D656D6F723B
:100DA0007920636F727275707465640000BFFEE72E
:100DB00070470000014800687047000004000020F0
:100DC00002480068401C0149086070470400002088
:100DD00010B50024032000F0A5F80F2000F008F85B
:100DE00008B1012401E000F04DF8204610BD0000DC
:100DF000F0B587B005460026002700222946362098
:100E000000F04EF8362000F03EF800BF1948806D23
:100E100040F01000174988650846806D00F010000A
:100E2000009000BF00BF01A902A800F053F9059E81
:100E30001EB900F077F9044602E000F073F94400AF
:100E40000D48B4FBF0F0471E0C480D49086040F215
:100E5000E7310B48C1604760002101618160816119
:100E600000F059FD20B9064800F070FD07B0F0BD54
:100E70000120FBE70010024040420F00001000403C
:100E800050000020704700BF00F01F020121914078
:100E90004209920002F1E022C2F8001100BF70473F
:100EA0002DE9F05F80460D461646002700F020FF32
:100EB000074639462A46334601F00700C0F1070AC3
:100EC000BAF1040F02D94FF0040A01E0C0F1070A99
:100ED000D14600F1040ABAF1070F02D24FF0000A1E
:100EE00001E0A0F1030AD4464FF0010A0AFA09FA18
:100EF000AAF1010A0AEA020A0AFA0CFA4FF0010BF7
:100F00000BFA0CFBABF1010B0BEA030B4AEA0B04E7
:100F10002146404600F0F4FE00F000B830BCBDE8C9
:100F2000C09F000000BF00F00702064B19684FF693
:100F3000FF031940044B0B4343EA0221014B1960A4
:100F400000BF70470CED00E00000FA0502480068A1
:100F500000F4C06070470000007000402DE9F041CF
:100F600004460D4614B90120BDE8F08155480068DB
:100F700000F00700A8420ED25248006820F0070097
:100F80002843504908600846006800F00700A8425E
:100F900001D00120E8E7207800F00100002840D0CF
:100FA0006068032806D14848006800F00070D8B98E
:100FB0000120D9E76068022806D14348006800F4A0
:100FC000003088B90120CFE7606830B93E4800683A
:100FD00000F0020040B90120C6E73B48006800F479
:100FE000806008B90120BFE73748806820F003001F
:100FF0006168084334498860FFF7DCFE064608E074
:10100000FFF7D8FE801B41F28831884201D90320C6
:10101000AAE72D48806800F00C006168B0EB810FF2
:10102000EED1207800F00200022807D1264880681F
:1010300020F0F000A1680843234988602148006837
:1010400000F00700A8420ED91E48006820F00700F3
:1010500028431C4908600846006800F00700A842C1
:1010600001D0012080E7207800F00400042807D197
:101070001548806820F4E060E16808431249886000
:10108000207800F00800082808D10F48806820F474
:101090006050216940EAC1000B49886000F066F8A1
:1010A00009498968C1F30311084A515C01F01F0125
:1010B000C840074908600F20FFF79AFE07463846E8
:1010C00052E700000020024000100240FC27000808
:1010D000000000200F2202600D4A926802F0030215
:1010E00042600B4A926802F0F0028260084A9268FD
:1010F00002F4E062C260064A926802F46052D208CA
:101100000261044A126802F007020A607047000098
:1011100000100240002002400148006870470000B3
:101120000000002000B5FFF7F7FF05498968C1F30B
:101130000221044A515C01F01F01C84000BD0000BB
:10114000001002400C28000800B5FFF7E5FF054934
:101150008968C1F3C221044A515C01F01F01C840F3
:1011600000BD0000001002400C2800082DE9F041ED
:1011700000240020DFF800C1DCF808C00CF00C01EE
:10118000DFF8F4C0DCF80CC00CF0030719B10C292F
:101190001ED1012F1CD1DFF8E0C0DCF800C00CF03C
:1011A000080CBCF1000F06D1DFF8CCC0DCF894C00D
:1011B000CCF3032405E0DFF8C0C0DCF800C0CCF3BA
:1011C0000314DFF8B8C05CF8244041B9204606E0BB
:1011D000042901D12A4802E0082900D129480C2914
:1011E00047D1DFF894C0DCF80CC00CF00305DFF841
:1011F00088C0DCF80CC0CCF3021C0CF10103012DFB
:101200001FD0022D02D0032D1AD10CE0DFF870C0E0
:10121000BCFBF3FCDFF86080D8F80C80C8F306282C
:101220000CFB08F218E0DFF85CC0BCFBF3FCDFF855
:101230004880D8F80C80C8F306280CFB08F20BE0B5
:1012400000BFB4FBF3FCDFF83080D8F80C80C8F3A3
:1012500006280CFB08F200BF00BFDFF81CC0DCF85A
:101260000CC0CCF3416C0CF1010C4FEA4C06B2FB04
:10127000F6F0BDE8F08100000010024014280008DC
:101280000024F40000127A002DE9F843044614B952
:101290000120BDE8F883F848806800F00C06F648A5
:1012A000C06800F00307207800F01000102875D106
:1012B0001EB10C2E74D1012F72D1EF48006800F0DE
:1012C000020018B1A06908B90120E2E7EA48216AE2
:1012D000006800F0080020B1E748006800F0F00066
:1012E00005E0E5489430006800F470600009814230
:1012F0001FD9206A00F018FD08B10120C9E700BF1E
:10130000DD48006840F00800DB49086008460068D6
:1013100020F0F000216A0843D749086000BF084662
:10132000406820F47F40E16940EA0120D2494860EA
:101330001EE000BFD048006840F00800CE490860B9
:101340000846006820F0F000216A0843CA49086096
:1013500000BF0846406820F47F40E16940EA012070
:10136000C5494860206A00F0DFFC08B1012090E721
:10137000FFF7FCFEC0498968C1F30311BF4A515C05
:1013800001F01F01C840BE4908600F20FFF730FD83
:101390008046B8F1000F4ED040467AE74BE0FFE7B9
:1013A000A06980B3B448006840F00100B249086009
:1013B000FFF700FD054606E0FFF7FCFC401B022896
:1013C00001D9032065E7AC48006800F0020000285E
:1013D000F2D000BFA848006840F00800A6490860A5
:1013E0000846006820F0F000216A0843A24908601E
:1013F00000BF0846406820F47F40E16940EA0120D0
:101400009D49486017E0FFE79B48006820F0010015
:1014100099490860FFF7CEFC054606E0FFF7CAFCD5
:10142000401B022801D9032033E79348006800F0ED
:1014300002000028F2D1207800F0010000285CD0E2
:10144000082E03D00C2E0AD1032F08D18A48006839
:1014500000F4003088B3606878BB012019E700BF52
:101460006068B0F5803F06D18348006840F4803062
:10147000814908601AE06068B0F5A02F0BD17E4862
:10148000006840F480207C4908600846006840F409
:10149000803008600AE07848006820F4803076499F
:1014A00008600846006820F48020086000BF60687B
:1014B00090B1FFF77FFC054607E01EE0FFF77AFCDE
:1014C000401B642801D90320E3E66B48006800F460
:1014D00000300028F2D010E0FFF76CFC054606E073
:1014E000FFF768FC401B642801D90320D1E662485D
:1014F000006800F400300028F2D1207800F00200EB
:10150000022852D1042E03D00C2E14D1022F12D156
:101510005948006800F4806018B1E06808B90120FB
:10152000B7E65548406820F0F850217C40EA016059
:101530005149486039E0E06800B34F48006840F422
:1015400080704D490860FFF735FC054606E0FFF75F
:1015500031FC401B022801D903209AE64648006866
:1015600000F480600028F2D04348406820F0F85032
:10157000217C40EA01604049486016E03E4800682E
:1015800020F480703C490860FFF714FC054606E033
:10159000FFF710FC401B022801D9032079E63648EA
:1015A000006800F480600028F2D1207800F0080084
:1015B000082836D16069D0B12F489430006840F0D7
:1015C00001002D49C1F89400FFF7F4FB054606E041
:1015D000FFF7F0FB401B022801D9032059E62648FB
:1015E0009430006800F002000028F1D019E0224891
:1015F0009430006820F001001F49C1F89400FFF703
:10160000D9FB054606E0FFF7D5FB401B022801D9B0
:1016100003203EE618489430006800F002000028DD
:10162000F1D1207800F00400042870D14FF00009B7
:101630001148806D00F0805078B900BF0E48806D71
:1016400040F080500C4988650846806D00F080505D
:10165000009000BF00BF4FF001090A48006800F485
:101660008070F0B90748006840F480700549086050
:10167000FFF7A0FB05460EE000100240FC27000823
:101680000000002000700040FFF794FB401B022880
:1016900001D90320FDE59B48006800F48070002814
:1016A000F2D000BFA068012808D19748006840F038
:1016B000010095499039C1F8900021E0A068052803
:1016C0000FD19148006840F004008F499039C1F86B
:1016D00090000846D0F8900040F00100C1F890005A
:1016E0000EE08948006820F0010087499039C1F870
:1016F00090000846D0F8900020F00400C1F8900057
:1017000000BFA068A0B1FFF755FB054609E02EE039
:10171000FFF750FB401B41F28831884201D903207A
:10172000B7E57948006800F002000028F0D012E028
:10173000FFF740FB054608E0FFF73CFB401B41F28A
:101740008831884201D90320A3E56F48006800F082
:1017500002000028F0D1B9F1010F07D16A48903892
:10176000806D20F0805068499039886500BF2078EE
:1017700000F02000202838D1606AD8B162480830D3
:10178000006840F0010060499039C1F89800FFF707
:1017900011FB054606E0FFF70DFB401B022801D9AF
:1017A000032076E558480830006800F00200002861
:1017B000F1D01AE054480830006820F00100524986
:1017C0009039C1F89800FFF7F5FA054606E0FFF7F3
:1017D000F1FA401B022801D903205AE54A48083093
:1017E000006800F002000028F1D1A06AF0B30C2ECE
:1017F00074D0A06A022853D143489038006820F082
:101800008070414990390860FFF7D4FA054606E038
:10181000FFF7D0FA401B022801D9032039E53A48E6
:101820009038006800F000700028F1D1206B401E55
:101830000101606B41EA0020E16A0843A18F0122A7
:10184000C2EB510140EA41514020005DC2EB500023
:1018500041EA40613820005D41EAC0602A49903980
:10186000C8600846006840F0807000E048E008600A
:101870000846C06840F08070C860FFF79BFA0546D4
:1018800006E0FFF797FA401B022801D9032000E584
:101890001D489038006800F000700028F1D02FE05B
:1018A00019489038006820F0807017499039086016
:1018B0000846006800F0006020B90846C06820F0C3
:1018C0000300C86010489038C068104908400E49AD
:1018D0009039C860FFF76EFA054607E00EE0FFF7A3
:1018E00069FA401B022801D90320D2E40648903847
:1018F000006800F000700028F1D101E00120C8E488
:101900000020C6E40070004090100240FFFFEEFE91
:1019100070477047704710B504460CB9012010BDE0
:1019200094F83D0028B9002084F83C00204600F0DF
:101930000CF8022084F83D00211D206800F0BAFA5E
:10194000012084F83D000020E9E77047014608685F
:10195000C06840F001000A68D060086880680B4ADF
:101960001040062805D0086880681040B0F5803F18
:1019700001D1012000E0002028B90868006840F08B
:1019800001000A6810600020704700000700010095
:10199000704710B5044620680069C0F34000D8B114
:1019A0002068C068C0F34000B0B16FF00200216849
:1019B0000861012020772068806900F0030018B1D9
:1019C0002046FFF7E5FF05E0204600F0BEF8204680
:1019D00000F0BCF80020207720680069C0F3800088
:1019E000D8B12068C068C0F38000B0B16FF00400C7
:1019F00021680861022020772068806900F4407027
:101A000018B12046FFF7C4FF05E0204600F09DF81E
:101A1000204600F09BF80020207720680069C0F382
:101A2000C000D8B12068C068C0F3C000B0B16FF08A
:101A3000080021680861042020772068C06900F050
:101A4000030018B12046FFF7A3FF05E0204600F091
:101A50007CF8204600F07AF80020207720680069A2
:101A6000C0F30010D8B12068C068C0F30010B0B156
:101A70006FF0100021680861082020772068C06995
:101A800000F4407018B12046FFF782FF05E02046C1
:101A900000F05BF8204600F059F80020207720681D
:101AA000006900F0010058B12068C06800F0010032
:101AB00030B16FF0010021680861204600F047F85E
:101AC00020680069C0F3C01058B12068C068C0F336
:101AD000C01030B16FF08000216808612046FFF728
:101AE00018FF20680069C0F3002058B12068C06862
:101AF000C0F3C01030B16FF48070216808612046D7
:101B0000FFF706FF20680069C0F3801058B1206815
:101B1000C068C0F3801030B16FF0400021680861E8
:101B2000204600F019F820680069C0F3401058B151
:101B30002068C068C0F3401030B16FF02000216809
:101B400008612046FFF7E6FE10BD7047704710B5EC
:101B50000446FFF735F910BD704710B504460CB9BF
:101B6000012010BD242084F871002068006820F056
:101B70000100216808600020216808602168486031
:101B800021688860204600F048F80020606784F8EB
:101B9000710084F8720000BF84F8700000BF00BFBD
:101BA000DFE710B504460CB9012010BDA06900B1F3
:101BB00000E000BF94F8710028B9002084F870009C
:101BC000204600F02BF8242084F87100206800687B
:101BD00020F0010021680860204600F05BFA01282F
:101BE00000D1E2E7606A10B1204600F09DF920685C
:101BF000406820F49040216848602068806820F0A8
:101C00002A00216888602068006840F0010021688F
:101C10000860204600F004FAC7E7704770472DE9D6
:101C2000F84304460D4616461F464FF0000994F847
:101C30007100202855D105B116B90120BDE8F883FF
:101C400000BF94F87000012801D10220F6E70120BE
:101C500084F8700000BF00206067212084F87100C4
:101C6000FFF7A8F88146A4F85060A4F8526021E07C
:101C70004B46002280212046009700F014FC08B15A
:101C80000320DBE7A068B0F5805F0AD1206940B986
:101C9000A846B8F80000C0F3080021680885AD1C0C
:101CA00003E015F8010B21680885B4F85200401EC6
:101CB000A4F85200B4F852000028D9D14B460022B3
:101CC00040212046009700F0EEFB08B10320B5E765
:101CD000202084F8710000BF002084F8700000BF4D
:101CE000ACE70220AAE700BFFEE700BFFEE77047AF
:101CF00002480068C0F30220704700000CED00E0CD
:101D000010B5002807DA0A07140E054A00F00F0381
:101D10001B1FD45403E00A07130E024A135410BDCC
:101D200018ED00E000E400E0F8B504460026234882
:101D3000806D00F0805018B1FFF708F9054616E0F5
:101D400000BF1E48806D40F080501C4988650846E1
:101D5000806D00F08050009000BF00BFFFF7F6F8E4
:101D600005461648806D20F0805014498865B5F509
:101D7000007F07D1802C10D9A02C01D902260CE0BD
:101D800001260AE0802C01D9032606E0802C01D12F
:101D9000022602E0702C00D101260948006820F0DC
:101DA00007003043064908600846006800F0070055
:101DB000B04201D00120F8BD0020FCE70010024035
:101DC0000020024010B500BF502080F31188BFF3FF
:101DD0004F8FBFF36F8F00BF00F066FC18B14FF05C
:101DE00080500449086000BF002080F3118800BFC4
:101DF00010BD000004ED00E000B597B01020019088
:101E000001200790602009900020089002200B908C
:101E100001210C910D9128210E9102211191072190
:101E20000F910421109101A8FFF72EFA08B100BF0D
:101E3000FEE70F20129003201390002014901590BD
:101E40001690042112A8FFF789F808B100BFFEE739
:101E500017B000BD1048006840F470000E490860DB
:101E60000E48006840F001000C49086000208860BE
:101E7000084600680A490840084908608814C86094
:101E80000846006820F48020086000208861C803AC
:101E9000014980390860704788ED00E00010024079
:101EA000FFFFF6EA10B50248FFF773FD10BD000012
:101EB0005000002010B50268184B984202D0B0F1D3
:101EC000804F03D122F070024B681A43134B9842A3
:101ED00008D0B0F1804F05D0114B984202D0114B81
:101EE000984203D122F44072CB681A4322F0800357
:101EF0004C6943EA040202608B68C3620B68836228
:101F0000064B984205D0064B984202D0054B9842AA
:101F100001D10B6903630123436110BD002C014013
:101F2000004001400044014090F8241001F00101FC
:101F300039B10168496821F40031826A11430268AD
:101F4000516090F8241001F00201022907D10168C4
:101F5000496821F48031C26A11430268516090F8E7
:101F6000241001F00401042907D10168496821F413
:101F70008021026B11430268516090F8241001F037
:101F80000801082907D10168496821F40041426B22
:101F900011430268516090F8241001F010011029DB
:101FA00007D10168896821F48051826B114302686E
:101FB000916090F8241001F02001202907D10168D8
:101FC000896821F40051C26B11430268916090F856
:101FD000241001F04001402913D10168496821F41F
:101FE0008011026C114302685160016CB1F5801FD1
:101FF00007D10168496821F4C001426C11430268AD
:10200000516090F8241001F08001802907D1016807
:10201000496821F40021826C1143026851607047C5
:1020200038B50446002500206067FEF7C3FE05466C
:102030002068006800F0080008280CD16FF07E408E
:102040002B4600224FF400110090204600F02BFA9E
:1020500008B1032038BD2068006800F0040004289F
:102060000CD16FF07E402B4600224FF4800100908F
:10207000204600F018FA08B10320EBE7202084F88E
:10208000710084F8720000BF002084F8700000BF67
:1020900000BFDFE72DE9F84F04464FF00009102696
:1020A0004FF0000B0025002000908246F349206885
:1020B000884200D100E000BF2169A068084361693F
:1020C0000843E16940EA010920680068EC490840DA
:1020D00040EA0900216808602068406820F4405008
:1020E000E168084321684860D4F81890E349206803
:1020F000884202D0206A40EA09092068806820F4FA
:10210000306040EA09002168886000BFDD4920682E
:10211000884216D1DC48006800F0030030B1012885
:1021200008D0022804D0032808D105E0012607E0E2
:10213000022605E0042603E0082601E0102600BF81
:1021400053E0D2492068884216D1CF48006800F099
:102150000C0030B1042808D0082804D00C2808D17D
:1021600005E0002607E0022605E0042603E0082635
:1021700001E0102600BF38E0C5492068884216D12A
:10218000C148006800F0300030B1102808D0202885
:1021900004D0302808D105E0002607E0022605E03B
:1021A000042603E0082601E0102600BF1DE0B34925
:1021B0002068884219D1B448006800F4406048B1F2
:1021C000B0F5806F0AD0B0F5006F05D0B0F5406F64
:1021D00008D105E0002607E0022605E0042603E01A
:1021E000082601E0102600BF00BF00BFA3492068F9
:1021F000884272D1042E10D003DC3EB1022E13D1DE
:1022000008E0082E0DD0102E0ED10EE0FEF78AFF4A
:1022100082460DE0DFF87CA20AE0FEF7A7FF8246C7
:1022200006E04FF4004A03E000BF0120009000BF29
:1022300000BFBAF1000F0AD0606800EB40005045C3
:1022400003D860680003504502D2012000900FE1DE
:10225000042E2ED003DC3EB1022E51D118E0082E00
:102260003CD0102E4CD14CE0FEF75CFF4FF4807157
:10227000A0FB0130616849085F1840F10001D4F803
:1022800004C0624600233846FEF764F805463BE08A
:10229000D4F804C04FEA5C0000217F4BC71841EB23
:1022A000010862460B4638464146FEF753F805469C
:1022B0002AE0FEF75BFF4FF48071A0FB01306168FC
:1022C00049085F1840F10001D4F804C062460023B9
:1022D0003846FEF73FF8054616E022E0D4F804C081
:1022E0004FEA5C0000214FF40003C71841EB0108DE
:1022F00062460B4638464146FEF72CF8054603E099
:1023000000BF0120009000BF00BFB5F5407F05D39E
:10231000B5F5801F02D22068C560A9E001200090B9
:10232000A6E0E069B0F5004F57D1042E28D005DCB7
:102330004EB1012E11D0022E36D118E0082E29D030
:10234000102E31D131E0FEF7EDFE4000616800EB68
:102350005100B0FBF1F085B22AE0FEF7F5FE400037
:10236000616800EB5100B0FBF1F085B220E04B4911
:10237000606801EB50006168B0FBF1F085B217E0D6
:10238000FEF7F4FE4000616800EB5100B0FBF1F095
:1023900085B20DE04FF48031606801EB5000616858
:1023A000B0FBF1F085B203E000BF0120009000BF58
:1023B00000BF102D0ED3B5F5803F0BD24FF6F07055
:1023C00005EA000BC5F342004BEA000B2068C0F899
:1023D0000CB04DE0012000904AE0042E26D005DC30
:1023E0004EB1012E10D0022E33D116E0082E26D089
:1023F000102E2ED12EE0FEF795FE616800EB510005
:10240000B0FBF1F085B228E0FEF79EFE616800EBBC
:102410005100B0FBF1F085B21FE01E49606801EB8E
:1024200050006168B0FBF1F085B216E0FEF79EFE49
:10243000616800EB5100B0FBF1F085B20DE04FF4A4
:102440000041606801EB50006168B0FBF1F085B2BB
:1024500003E000BF0120009000BF00BF102D05D396
:10246000B5F5803F02D22068C56001E001200090F0
:10247000002020666066009800F012B800800040DE
:10248000F369FFEF0038014088100240004400402B
:10249000004800400024F400000024F40048E80153
:1024A00018BCBDE8E08F2DE9F04104460D46174603
:1024B0009846069E21E0701CF8B12EB1FEF77AFC1A
:1024C000A0EB0800B04218D92068006820F4D07052
:1024D000216808602068806820F001002168886019
:1024E000202084F8710084F8720000BF002084F876
:1024F000700000BF0320BDE8F0812068C06928405B
:10250000A84201D1012000E00020B842D3D0002031
:10251000F1E700BFFEE7000013B50C464FF6FF736E
:10252000012269460248FFF77AFB00981CBD0000B3
:1025300090000020FEF74CFCFFF75EFC00F02CF84A
:1025400002E002A0FDF77EFFFBE70000207468694F
:102550007320697320757361727420746573740DD0
:102560000A0000000A490968096809B9012100E068
:10257000002121B14FF0FF31064A116006E0044905
:102580000968C968C868034A41681160704700005B
:102590000C0000203800002010B50E480E490860DD
:1025A0004FF41650486000210B488160C160016102
:1025B00081610C2141610021C161FFF7CEFA08B1B0
:1025C00000BFFEE70448FFF7ECFA08B100BFFEE7E2
:1025D00010BD0000003801409000002001460A694B
:1025E000D1E901309860D1E9010358605068884210
:1025F00001D188685060002008611068401E10609A
:102600001068704742684A6093688B6093685960AD
:102610009160086103685B1C036070471D48006897
:1026200018B101201C49086032E000201A490860F6
:102630001A480068B0FA80F0C0F11F0101EB810078
:10264000174A52F8200008B1012000E0002050B9DC
:1026500000BF502080F31188BFF34F8FBFF36F8FFF
:1026600000BF00BFFEE701EB81020D4B03EB8200D0
:1026700042685268426000F108024368934202D106
:102680004268526842604268D268064B1A6000BFD6
:1026900070470000400000202C0000202000002097
:1026A00008010020080000202DE9F0414FF000084B
:1026B00044480068002877D143480068451C4248D8
:1026C000056015BB41480068006808B9012000E0BA
:1026D000002050B900BF502080F31188BFF34F8F06
:1026E000BFF36F8F00BF00BFFEE738480768384868
:1026F0000068364908603648076036480068401C64
:1027000034490860FFF72EFF00BF33480068854258
:102710003CD300BF2D480068006808B9012000E0E4
:10272000002020B14FF0FF302B4908602DE02748F2
:102730000068C068C4686668B54202D22648066070
:1027400023E0201DFFF74AFFA06A18B104F118002A
:10275000FFF744FF94F82C10012088401F490968B6
:1027600008431E490860E16A01EB81011C4A02EB43
:102770008100211DFFF746FF1A49E06A0968C96A0E
:102780008842C7D34FF00108C4E700BF154800686E
:10279000C06A00EB8000124951F82000012801D9DD
:1027A0004FF0010805E0FFE70F480068401C0E49A4
:1027B00008600E48006808B14FF001084046BDE8C7
:1027C000F0810000400000201C0000200C000020D0
:1027D00010000020300000203800002020000020E1
:1027E0000801002008000020280000202C00002004
:1027F0004FF04070E1EE100A70470000000000004A
:1028000000000000010203040607080900000000A0
:1028100001020304A0860100400D0300801A060097
:1028200000350C0040420F0080841E0000093D006E
:1028300000127A000024F40000366E010048E8011E
:10284000006CDC023A7474003A7474003A747400D8
:10285000702800080000002050000000C801000897
:10286000C02800085000002008090000E40100080A
:1028700000093D0000000000000000000000000012
:102880000000000000000000000000000000000048
:102890000000000000000000000000000000000038
:1028A0000000000000000000000000000000000028
:1028B0000000000000000000000000000000000018
:040000050800018D61
:00000001FF
